S00C00004355424F2E73726563EF
S11300000C94E7070C9404080C9404080C9404085A
S11300100C9404080C9404080C9404080C9404082C
S11300200C9404080C9404080C9404080C9404081C
S11300300C9404080C9404080C9404080C9404080C
S11300400C9404080C9404080C9425080C940408DB
S11300500C9448080C9404080C9404080C940408A8
S11300600C9404080C940408B409B909BF09C40920
S1130070CA09D009D609FE09030A090A0E0A140A94
S11300801A0A200A490A4B0A4D0A4F0A510A530A0E
S1130090550A8D0A8F0A910A930A950A970A990AB2
S11300A04717B9172B189F1813198B19031A7B1AA2
S11300B0F31A671BDB1B531C0E0D0C1615141C1DA9
S11300C01E242526FF0000000000000000000000A0
S11300D0000000000000000000160D141E15240E80
S11300E01D1C26250C040402020406050202040752
S11300F004FF00000000000000001E0D240E150C7B
S1130100161D1C2625140202040403090204040318
S11301100803FF00000000000000000E1D0C16255F
S1130120141E0D1C261524040904090004090409DD
S11301300A0A040904090004090409FF0E250C161F
S11301401D141E151C260D24050B04040A040A059F
S11301500B040A040B040B050A0AFF00000E250C0D
S1130160160D141E1D1C261524050A050B050B056A
S11301700A040A0404FF00000000000000000E1539
S11301800C1625141E1D1C260D2404040B050B043B
S11301900A040A040B04FF0000000000000000161B
S11301A00D240E151C261D141E250C050709060416
S11301B00708060507080604070906FF00000000F3
S11301C00E1D141E150C160D1C2625240B050A04E1
S11301D00B0404070B060A040605070404FF0000C9
S11301E0000E0D141E250C161D1C261524040A05CC
S11301F00B050604040B050B040A0507FF000000A9
S113020000000E0D141E1D0C16151C262524040AB0
S11302100507040A050B050604040B050BFF000083
S1130220000000260D0C1615141E25240E1D1C0995
S11302300B0806090B080A080708080A080AFF0041
S113024000000000160D240E1D141E151C26250C7E
S1130250050A0A040A0A0506040A050B050704042C
S11302600BFF000000160D240E15141E251C261D60
S11302700C080A0A090A0A0807090B080A080608EA
S1130280080AFF0000001E150C160D240E1D1C2666
S11302902514050A050B03000301020205030402E9
S11302A004FF00000000001E250C1615240E1D1C62
S11302B0260D1406040B050B040A0507040A050B96
S11302C005060407FF0000001E0D0C1625240E1D54
S11302D01C261514050A040B05070B06040A05065B
S11302E00507040B04FF0000000E0D1C2625141E38
S11302F01D0C161524040B050A04020A03050B043D
S1130300030402050A05FF000000261D0C1615242F
S11303100E25141E0D1C030300090A090B08010213
S113032002050A04FF0000000000001E250C16153B
S11303301C260D240E1D14050B04020200090A08D4
S11303400B08010202FF0000000000000E1D141E35
S11303500D1C26150C162524030301040B040A05A1
S1130360000202080B09FF0000000000000E151C2B
S1130370261D0C160D141E2524080A090202010468
S11303800B050A05000202FF0000000000002E2FEA
S1130390282D292C2B2AFF0000000000000000005B
S11303A00000000000000000000000000E2F162DC9
S11303B029262B2A050A0A040A050A04FF0000005C
S11303C000000000000000000000242F0C2D291C58
S11303D02B2A090A040B080A05FF0000000000008C
S11303E000000000000000000E2F162D291C2B1405
S11303F0080B050A090A040A050A04FF00000000A4
S1130400000000000000242F162D29262B14040AB6
S1130410050A040B050A040A0A05FF00000000008F
S1130420000000002E2F0C2D292C2B1E050708067A
S113043004070906FF00000000000000000000009F
S113044000002E2F0C2D29262B2A05070906040748
S11304500806FF000000000000000000000000008B
S11304602E2F282D291C2B1E040400050A0A040122
S1130470050A0A05FF000000000000000000240D2A
S1130480162515261D14040A03040205050B05068A
S11304900407FF000000000000000000240D1625E2
S11304A0151C1D1E050604070A0A05060406060A8D
S11304B00A06FF000000000000000E0D1625152698
S11304C01D2A070202080308060B0B07080306FF90
S11304D00000000000000000240D2825151C1D1438
S11304E0050A0A050604070B070B060B04FF0000A8
S11304F00000000000002E0D282515261D14050AF5
S11305000A06040A050B06060A0A0604FF00000090
S1130510000000000E0D0C25152C1D2A06040A05EA
S11305200A070A0A07080609FF0000000000000085
S113053000002E0D0C2515261D2A040A050A0506A1
S113054004070A0A05060407FF0000000000000073
S11305502E0D2825152C1D2A0508060604090A0A4D
S113056005080604090A0A050806060409FF2E0DF3
S1130570282D292C1D2A09040A050B080506040741
S1130580FF00000000000000000000002E0D282DD8
S1130590152C2B2A05080704090B0B050807040969
S11305A0FF000000000000000000242F162515267F
S11305B02B14040B020200030A0A020102020A05B8
S11305C0FF000000000000000E2F1625151C2B1440
S11305D0050B070A070806090604FF0000000000CF
S11305E00000000000000E0D162D291C1D14060A23
S11305F0040B050A040B0507FF00000000000000BF
S113060000000000240D162D29261D140903080BD3
S1130610050A040B050A04090208FF000000000093
S11306200000240D0C2D291C1D2A0506040A0507AB
S113063004060B07FF00000000000000000000009B
S11306400E0D162D292C1D1E0807090B0806090777
S11306500A06FF0000000000000000000000240D56
S11306600C2D292C1D14040205080A090B0403058A
S1130670FF00000000000000000000000E0D162D19
S113068029261D2A090308050B040A090208FF008C
S113069000000000000000000000240D282D292681
S11306A01D2A06040A050B07FF00000000000000D5
S11306B000000000000000000E0D282D291C1D2A3A
S11306C0040A050B05060407FF00000000000000F3
S11306D00000000000002E0D0C2D29261D2A050601
S11306E0040A050B070A04FF0000000000000000D4
S11306F0000000000E0D282D292C1D140807090BDD
S1130700080A060B09FF00000000000000000000BA
S113071000002E2F1625152C2B14040A04030502A1
S11307200B05FF00000000000000000000000000B6
S1130730240D162D292C1D2A040A050B0305060475
S11307400702FF0000000000000000000000242F4A
S11307500C2D15261D1E06040A050B040A050B079D
S1130760FF00000000000000000000000E2F16250E
S1130770291C1D1407090B080A090B080A06FF00A7
S113078000000000000000000000240D0C252926B4
S11307902B1E080B070B0B070A060B060A0A060B8F
S11307A009FF000000000000242F0C2529261D1E2F
S11307B00506050704040A0A03040205FF000000F5
S11307C00000000000000E2F0C25291C1D1E05062C
S11307D004070A0A040403050205FF0000000000E0
S11307E0000000000E2F0C2D151C1D1E0807090605
S11307F00A0A080802080308FF00000000000000BD
S113080000000E2F162D152C1D1E080605060406C5
S11308100609FF00000000000000000000000000C6
S11308202E0D0C2D151C2B140903080B050A0409A5
S11308300208FF0000000000000000000000240D7A
S11308400C2D151C2B2A0A0A0805050704070506A2
S11308500604070409FF0000000000000E0D162521
S1130860292C2B1E0A0A050808060906080606098B
S1130870060409FF0000000000002E0D282D152697
S11308802B1403040305050A040A050B040202FFE2
S11308900000000000000000242F0C2D151C1D2A50
S11308A0050B040605070A060407FF000000000004
S11308B00000000000000E0D282D15262B1E040A32
S11308C0050304020B030502FF0000000000000002
S11308D0000000002E0D282529262B1402090208E9
S11308E0080B090B080A090303FF000000000000BD
S11308F000000E2F0C2D152C1D2A0B040B0B050BC1
S1130900040B0404070B060A04FF000000000000A7
S11309100E2F0C25292C1D2A0B050A0A040A050A88
S11309200404020A030B05FF0000000000000E2F60
S11309302825292C1D14050A0A0404030502050AA6
S11309400A04FF0000000000000000002E2F162DF6
S1130950151D1D2A060507040A040B05FF000000E7
S1130960000000000000000000000E0D16252926DE
S11309702B2A0902020402050208FF0000000000FD
S11309800000000000000000242F2825291C1D144D
S11309900806060507040709FF0000000000000020
S11309A00000000000002E2F0C2D152C1D1E080A1F
S11309B0070B090A080609FF0000000000000000F8
S11309C0000000000E2F2825291C1D2A050B060AED
S11309D0040B050704FF00000000000000000000F5
S11309E000002E2F162D152C1D14060A040B0507C6
S11309F0FF000000000000000000000000000000F4
S1130A00242F282529261D2A070B090A0806FF007A
S1130A100000000000000000000000000000240DA1
S1130A202825292C2B1E080A090A080B090B090280
S1130A300803FF0000000000000000002E0D162D2A
S1130A40151C2B2A050B040B050A040A04030502D2
S1130A50FF000000000000000000002D0225010539
S1130A600A040A020B03FF002F030D02070A060AF9
S1130A70040B05FF0029041503090A080A060B07DD
S1130A80FF002B011D04030A020A080B09FF002BB7
S1130A90011D02020B030B050A04FF002D022503AE
S1130AA0040B050B070A06FF002F030D04060B07B2
S1130AB00B090A08FF0029041501080B090B030A96
S1130AC002FF002B021D010AFF00000000000000CD
S1130AD02F020D010BFF000000000000002D032574
S1130AE0020AFF00000000000000290315020BFFAA
S1130AF0000000000000002F040D030AFF000000A6
S1130B00000000002B041D030BFF00000000000088
S1130B1000290115040AFF000000000000002D0157
S1130B2025040BFF00000000000000290115020A43
S1130B30FF000000000000002D0125020BFF000053
S1130B4000000000002B021D030AFF00000000004B
S1130B5000002F020D030BFF000000000000002D19
S1130B600325040AFF000000000000002903150407
S1130B700BFF000000000000002F040D010AFF001D
S1130B800000000000002B041D010BFF000000000A
S1130B900000002D0425010A0AFF000000000000E7
S1130BA02B031D040A0AFF0000000000002902159F
S1130BB0030A0AFF0000000000002F010D020A0AC8
S1130BC0FF0000000000002F010D040A0AFF0000CE
S1130BD0000000002D0425030A0AFF0000000000A5
S1130BE0002B031D020A0AFF000000000000290276
S1130BF015010A0AFF0000000000010B011702059D
S1130C000A040A020B03FF0113021F03070A060A60
S1130C10040B05FF011B032704090A080A060B0736
S1130C20FF0123040F01030A020A080B09FF16003F
S1130C300C042801080B09FF1E0014012A02020BF0
S1130C4003FF26001C022C03040B05FF0E002403E3
S1130C502E04060B07FF24000E022E01050A04FFD2
S1130C600C0016032802070A06FF14001E042A03B8
S1130C70090A08FF1C0026012C04030A02FF0E00C7
S1130C8024042E010AFF00001E0014042A010BFF95
S1130C90000016000C0128020AFF000026001C01B7
S1130CA02C020BFF00001E0014022A030AFF00009E
S1130CB00E0024022E030BFF000026001C032C044C
S1130CC00AFF000016000C0328040BFF00001C00A0
S1130CD026022C010AFF00000C00160228010BFF5B
S1130CE0000024000E032E020AFF000014001E035D
S1130CF02A020BFF00000C00160428030AFF000060
S1130D001C0026042C030BFF000014001E012A04FF
S1130D100AFF000024000E012E040BFF00000C004B
S1130D20160128040A0AFF0024000E042E030A0AEE
S1130D30FF001C0026032C020A0AFF0014001E02F6
S1130D402A010A0AFF001E0014032A040A0AFF00EB
S1130D5016000C0228030A0AFF000E0024012E02CA
S1130D600A0AFF0026001C042C010A0AFF000001E5
S1130D7008012204030B02FF080100062206030BEC
S1130D8002FF220100062206080A09FF06011002DA
S1130D900A01050B04FF100106060A06050B04FFF1
S1130DA00A0106061006020A03FF040118031202D0
S1130DB0070B06FF180104061206070B06FF1201B3
S1130DC004061806040A05FF020120041A03090B8D
S1130DD008FF200102061A06090B08FF1A01020681
S1130DE02006060A07FF28010C061606050A04FF5A
S1130DF02A0114061E06070A06FF2C011C062606F5
S1130E00090A08FF2E0124060E06030A02FF230026
S1130E100F0102FF000017000B0103FF00000B008D
S1130E20170204FF00001F00130205FF0000130057
S1130E301F0306FF000027001B0307FF00001B0021
S1130E40270408FF00000F00230409FF00002F00FF
S1130E500D0102FF00002900150204FF00002B0011
S1130E601D0306FF00002D00250408FF00002900D3
S1130E7015030AFF0000290015040A0AFF002900CF
S1130E8015010BFF00002B001D040AFF00002B00BE
S1130E901D010A0AFF002B001D020BFF00002D009C
S1130EA025010AFF00002D0025020A0AFF002D007B
S1130EB025030BFF00002F000D020AFF00002F0086
S1130EC00D030A0AFF002F000D040BFF00001D0094
S1130ED02B010AFF0000150029010A0AFF000D007A
S1130EE02F010BFF000025002D01090208FF25003A
S1130EF02D020AFF00001D002B020A0AFF00150044
S1130F0029020BFF00000D002F02030402FF0D0055
S1130F102F030AFF000025002D030A0AFF001D000D
S1130F202B030BFF000015002903050604FF150021
S1130F3029040AFF00000D002F040A0AFF002500FF
S1130F402D040BFF00001D002B04070806FF2301DE
S1130F500F01030A02FF0B011702050A04FF130124
S1130F601F03070A06FF1B012704090A08FF0F01D4
S1130F702304030A02FF17010B01050A04FF1F01E2
S1130F801302070A06FF27011B03090A08FF0101D0
S1130F90210408FF00000301190306FF00000501F6
S1130FA0110204FF00000701090102FF00002101F2
S1130FB0010608FF00001901030606FF00001101E5
S1130FC0050604FF00000901070602FF00001124C2
S1130FD01FBECFEFD8E0DEBFCDBF11E0A0E0B1E08F
S1130FE0E0EFFAE402C005900D92AE3BB107D9F7E9
S1130FF022E0AEEBB1E001C01D92A53EB207E1F7DD
S11310000E94AD240C9476250C9400009B01AC0145
S113101060E472E48FE090E00E9408253093C500FC
S11310202093C40082E08093C00088ED8093C100C7
S113103086E08093C200109213021092150210925F
S1131040BE0110921402789408951F920F920FB665
S11310500F9211248F939F93EF93FF938091150226
S11310609091C600E82FF0E0ED51FE4F90838F5F22
S1131070843118F48093150202C010921502FF9176
S1131080EF919F918F910F900FBE0F901F90189525
S11310901F920F920FB60F9211248F93EF93FF9329
S11310A0E091BE0180911402E81781F0F0E0EA5E5D
S11310B0FD4F80818093C6008091BE018F5F883C84
S11310C018F48093BE0102C01092BE01FF91EF910B
S11310D08F910F900FBE0F901F901895F894209148
S11310E0C0004091BE019091140225FF05C0491330
S11310F003C08093C60019C0941718F428EC290F74
S113110001C0292F30E0241B3109273C3105ECF7BD
S1131110E92FF0E0EA5EFD4F80839F5F983C18F46E
S11311209093140202C01092140278940895CF93FD
S1131130DF93EC018991882319F00E946E08FACF9D
S1131140DF91CF9108954F925F926F927F92AF9209
S1131150BF92CF92DF92EF92FF920F931F93CF93A0
S1131160DF93CDB7DEB72A970FB6F894DEBF0FBE74
S1131170CDBF6B017C018AE0E0E0F1E08E010F5FFE
S11311801F4FD80101900D928A95E1F7F7FE0BC02D
S11311908DE20E946E08F094E094D094C094C11C37
S11311A0D11CE11CF11C5E018BE0A80EB11C8AE08D
S11311B0482E512C612C712CC114D104E104F1048A
S11311C069F0C701B601A30192010E942A25605D5E
S11311D0F50162935F0169017A01EECFF80180E0C5
S11311E090E02191203321F4019689309105C9F7CB
S11311F07801E80EF91EF70181917F010E946E08C3
S1131200C701801B910B0A97B1F72A960FB6F89481
S1131210DEBF0FBECDBFDF91CF911F910F91FF9025
S1131220EF90DF90CF90BF90AF907F906F905F90E2
S11312304F90089598E087FF02C05B9A01C05B98C5
S11312402AE12A95F1F700C05C9A2AE12A95F1F780
S113125000C05C98880F915071F78AE18A95F1F784
S113126000C05A9A2AE12A95F1F700C05A980895C5
S11312708AB18C698AB984B1876084B95F9885B171
S1131280887F85B981E08093E4020E941A09109254
S11312901202109211021092F8011092F70184B117
S11312A08F7384B98AB18F798AB908958091E402E1
S11312B08E7F82608093E4020E941A094E99FECFC9
S11312C02FE788E391E0215080409040E1F700C08F
S11312D000008091E4028D7F8093E4020E941A0949
S11312E02FEF82E597E0215080409040E1F700C065
S11312F0000008958091E4028D7F81608093E40270
S11313000E941A092FEF81EE94E021508040904012
S1131310E1F700C000008091E4028E7F8093E40234
S11313200E941A092FEF81EE94E0215080409040F2
S1131330E1F700C0000008955F9885B1887F85B902
S1131340089580911102E82FE7708E2F90E0FC0140
S11313503197E730F10520F4EC5CFF4F0C944925FC
S11313605F9A85B1887F1AC085B1897F85B95F9AF4
S113137004C05F9885B1897F85B9289A1CC05F989D
S11313802A9885B183600AC05F9885B18A7F85B940
S1131390299A11C05F98289885B1866085B90BC0D9
S11313A05F9885B18C7F85B92A9A05C085B18C7FF9
S11313B085B92A9A5F9A809111029091120201963E
S11313C090931202809311028FE697E10197F1F74F
S11313D000C00000089580911102E82FE7708E2F5D
S11313E090E0FC013197E730F10520F4E55CFF4F14
S11313F00C9449255F9A85B1887F1AC085B1897F8D
S113140085B95F9A04C05F9885B1897F85B9289AA8
S11314101CC05F982A9885B183600AC05F9885B123
S11314208A7F85B9299A11C05F98289885B186600A
S113143085B90BC05F9885B18C7F85B92A9A05C0A0
S113144085B18C7F85B92A9A5F9A80911102909117
S11314501202019790931202809311028FE697E192
S11314600197F1F700C0000008954091F701E42FBF
S1131470E7708091E4028F704E2F50E0FA013197AB
S1131480E730F10520F4EE5BFF4F0C9449258061B1
S11314900DC080650BC0806409C0806607C080628F
S11314A005C0806A03C0806801C080698093E4023B
S11314B08091E4020E941A098091F7019091F80149
S11314C002969093F8018093F7018FEC97E00197CF
S11314D0F1F700C000008091E4028F700E941A09A5
S11314E08FE697E10197F1F700C0000008954D9B46
S11314F042C04091F701E42FE7708091E4028F70BD
S11315004E2F50E0FA013197E730F10520F4E75B04
S1131510FF4F0C94492580610DC080650BC0806429
S113152009C0806607C0806205C0806A03C0806805
S113153001C080698093E4028091E4020E941A0948
S11315408091F7019091F80102979093F8018093AC
S1131550F7018FE697E10197F1F700C00000809151
S1131560E4028F700E941A098FEC97E00197F1F75B
S113157000C0000008951092F8011092F701089538
S11315808091E4028F708093E4020C941A09CF9343
S1131590DF93EC011816190654F04D9B03C00E940A
S11315A0770AFBCF1092F8011092F7011BC08091CB
S11315B0F7019091F8018C179D0754F48091F7017D
S11315C09091F8018C179D076CF40E94350AF6CFB0
S11315D08091F7019091F801C817D9071CF40E9473
S11315E0770AF6CFDF91CF910C94C00A0E94770A54
S11315F00E94770A0E94770A0E94770A0E94350A9D
S11316000E94350A0E94350A0E94350A0E94350A52
S11316100E94350A0E94350A0E94350A0E94770A00
S11316200E94770A0E94770A0E94770A0E94770A2A
S11316300E94770A0E94770A0E94770A0E94350A5C
S11316400E94350A0E94350A0E94350A0E94350A12
S11316500E94350A0E94350A0E94350A0E94770AC0
S11316600E94770A0E94770A0E94770A0E94770AEA
S11316700E94770A0E94770A0E94770A0E94350A1C
S11316800E94350A0E94350A0E94350A0E94C00A47
S11316900E94EB090E94EB090E94EB090E94EB09EE
S11316A00E94A1090E94A1090E94A1090E94A10906
S11316B00E94A1090E94A1090E94A1090E94A109F6
S11316C00E94EB090E94EB090E94EB090E94EB09BE
S11316D00E94EB090E94EB090E94EB090E94EB09AE
S11316E00E94A1090E94A1090E94A1090E94A109C6
S11316F00E94A1090E94A1090E94A1090E94A109B6
S11317000E94EB090E94EB090E94EB090E94EB097D
S11317100E94EB090E94EB090E94EB090E94EB096D
S11317200E94A1090E94A1090E94A1090E94A10985
S11317300E949C092FE788E391E02150804090406B
S1131740E1F700C00000089580E480937C0086E8FF
S113175080937A0088E380937E0087B1876087B99D
S113176018B8089590917C008F70907F892B809396
S11317707C0080917A00806480937A0080917A0062
S113178086FDFCCF80917800909179000895CF93E5
S1131790DF9384E088B92FEF80E792E02150804006
S11317A09040E1F700C0000084E00E94B20BC9EF52
S11317B0D1E09983888385E00E94B20B998788875A
S11317C083E00E94B20B998B888B81E088B92FEF5C
S11317D080E792E0215080409040E1F700C0000093
S11317E084E00E94B20B9B838A8385E00E94B20B43
S11317F09B878A8783E00E94B20B9B8B8A8B82E053
S113180088B92FEF80E792E0215080409040E1F7C3
S113181000C0000084E00E94B20B9D838C8385E0AD
S11318200E94B20B9D878C8783E00E94B20B9D8B34
S11318308C8B18B82FEF80E792E0215080409040C5
S1131840E1F700C0000084E00E94B20B9F838E8306
S113185085E00E94B20B9F878E8783E00E94B20BC3
S11318609F8B8E8BDF91CF910895CF93DF93EC0103
S11318700E945609C63A8FEFD80709F43FC08CF48A
S1131880C23F8EEFD80709F447C0CC348FEFD80796
S113189009F43BC0C839DE4F09F049C0C0EED1E0BD
S11318A042C0C43BD105B9F03CF4CA35D10509F0B6
S11318B03EC0C8E7D0E00AC0CE3081E0D80791F03E
S11318C0C836D140A1F5C0EED1E013C00E94A109F1
S11318D02197E1F72CC0C0EFD0E00E94A109219725
S11318E0E1F725C0C8E6D1E00E94A1092197E1F7FC
S11318F01EC00E94A1092197E1F719C0C8E7D0E0F2
S11319000E94EB092197E1F712C0C0EFD0E00E94DA
S1131910EB092197E1F70BC0C8E6D1E00E94EB097F
S11319202197E1F704C00E94EB092197E1F70E9497
S11319309C090E947A0981E0DF91CF910895CF93A9
S1131940DF93863A2FEF920709F458C08CF4823F54
S11319502EEF920709F46CC08C342FEF920709F430
S11319605AC088399E4F09F07AC0CAEED1E06DC0E2
S1131970843B9105F1F03CF48A35910509F06FC080
S1131980C2E8D0E00BC08E3021E09207F9F088362F
S1131990914009F064C0CAEED1E025C00E94A109BB
S11319A02197E1F7CAE0D0E00E94EB092197E1F723
S11319B056C0CAEFD0E00E94A1092197E1F7CAE01E
S11319C0D0E00E94EB092197E1F749C0C2E7D1E0DA
S11319D00E94A1092197E1F7CAE0D0E00E94EB0937
S11319E02197E1F73CC00E94A1092197E1F7CAE0E1
S11319F0D0E00E94EB092197E1F731C0C2E8D0E0C2
S1131A000E94EB092197E1F7CAE0D0E00E94A10906
S1131A102197E1F724C0CAEFD0E00E94EB09219797
S1131A20E1F7CAE0D0E00E94A1092197E1F717C0CD
S1131A30C2E7D1E00E94EB092197E1F7CAE0D0E0C8
S1131A400E94A1092197E1F70AC00E94EB0921979E
S1131A50E1F7CAE0D0E00E94A1092197E1F70E94D2
S1131A609C0981E0DF91CF9108950F931F93CF9349
S1131A70DF9300E010E080E090E00E94C70A8091CC
S1131A80E4028E7F82608093E4020E941A098FE24E
S1131A9095E70197F1F700C000008091E4028D7F83
S1131AA08093E4020E941A09C0E0D0E04E9902C07B
S1131AB0C8EEDDEF9AE19A95F1F700C02196C115C1
S1131AC08AEFD80798F3C83E9DEFD90708F04CC0B9
S1131AD08091E4028E7F82608093E4020E941A095E
S1131AE08FE295E70197F1F700C000008091E402CE
S1131AF08D7F8093E4020E941A09C0E0D0E04E99E1
S1131B0002C0C8EEDDEF9AE19A95F1F700C0219684
S1131B10C1158AEFD80798F3C83E9DEFD90720F581
S1131B208091E4028E7F82608093E4020E941A090D
S1131B308FE295E70197F1F700C000008091E4027D
S1131B408D7F8093E4020E941A09C0E0D0E04E9990
S1131B5002C0C8EEDDEF9AE19A95F1F700C0219634
S1131B60C1158AEFD80798F386E391E00E94C70A6B
S1131B7083E191E00E94C70AC83EDD4F18F40E9439
S1131B80F60A02C006E010E00F5F1F4F0430110593
S1131B9008F471CF81E00430110509F480E0DF918D
S1131BA0CF911F910F910895EEEDF2E0108281E044
S1131BB0818382E0828383E0838384E0848385E07D
S1131BC085830895CF93C82F8695EEEDF2E090E0DB
S1131BD020E03191831301C0922F2F5F2630C9F783
S1131BE0923009F44BC010F59923B9F1913009F002
S1131BF087C08091DE029091E1029093DE02909181
S1131C00E2029093E1028093E2028091DF029091DC
S1131C10E0029093DF029091E3029093E0028093BC
S1131C20E3020E94F60A8AE590E061C0933009F469
S1131C3042C0943009F064C08091DE029091E002C9
S1131C409093DE029091E3029093E0029091E2027D
S1131C509093E3028093E2024DC08091E30290915D
S1131C60DE029093E3028093DE028091E20290917F
S1131C70E0029093E2028093E00216C08091E002B9
S1131C809091DE029093E0029091E2029093DE0242
S1131C909091E3029093E2028093E3020E94F60A99
S1131CA00E94350D8823D1F10E94F60A0E94350D59
S1131CB08823A1F11FC08091DE029091DF029093EE
S1131CC0DE029091E2029093DF028093E20280911F
S1131CD0E0029091E3029093E0029091E1029093EC
S1131CE0E3028093E1020E94F60A86EA9FEF0E94D3
S1131CF0350CDECF0E94F60A0E94350D882371F060
S1131D000E94F60AC0FF03C08AE590E002C086EA9A
S1131D109FEF0E949F0C91E0811101C090E0892FF8
S1131D20CF910895EF92FF920F931F93CF93DF9378
S1131D30EC0186EA9FEF0E94350C0E94350D8AE57E
S1131D4090E00E94350C0E94560980EA90E00E94BF
S1131D50C70A0E947A090E94C70BFE01E05BFF4F8D
S1131D608091F9019091FA01918380833296809158
S1131D70FB019091FC019183808332968091FD0157
S1131D809091FE0191838083329611821082329663
S1131D908091010290910202918380833296809116
S1131DA0030290910402918380833296809105020C
S1131DB090910602918380833296EE24E394F12C71
S1131DC0F182E08232968091090290910A02918315
S1131DD08083329680910B0290910C0291838083D0
S1131DE0329680910D0290910E02918380833296F7
S1131DF002E010E01183008386E490E00E94C70AA9
S1131E000E94C70BFE01E85BFF4F8091F90190919E
S1131E10FA019183808332968091FB019091FC01B9
S1131E209183808332968091FD019091FE0191838C
S1131E308083329611821082E65CFE4F809101020B
S1131E409091020291838083329680910302909153
S1131E500402918380833296809105029091060258
S1131E60918380833296F182E082E652F140809140
S1131E70090290910A0291838083329680910B0229
S1131E8090910C0291838083329680910D029091FF
S1131E900E029183808332961183008300EF10E059
S1131EA00E94A10901501109D9F70E949C0980EAF6
S1131EB090E00E94C70A0E94C70B8091F90190919B
S1131EC0FA01FE01E059FF4F918380838091FB0169
S1131ED09091FC013296918380838091FD019091D1
S1131EE0FE01329691838083329611821082809112
S1131EF001029091020232969183808380910302C1
S1131F00909104023296918380838091050290918E
S1131F100602329691838083EE24E394F12C329668
S1131F20F182E0828091090290910A02FE979183E6
S1131F30808380910B0290910C023296918380836E
S1131F4080910D0290910E0232969183808302E07B
S1131F5010E032961183008386E391E00E94C70A61
S1131F600E94350D0E94350D0E94560980EA90E0CA
S1131F700E94C70A0E947A090E94C70B8091F90146
S1131F809091FA01FE01E051FF4F9183808380918B
S1131F90FB019091FC013296918380838091FD0135
S1131FA09091FE0132969183808332961182108241
S1131FB080910102909102023296918380838091F4
S1131FC003029091040232969183808380910502EA
S1131FD0909106023296918380833296F182E08258
S1131FE08091090290910A02FE97918380838091E7
S1131FF00B0290910C0232969183808380910D02A2
S113200090910E02329691838083329611830083DD
S113201086E490E00E94C70A0E94C70B8091F901F0
S11320209091FA01FE01E851FF4F918380838091E2
S1132030FB019091FC013296918380838091FD0194
S11320409091FE01329691838083329611821082A0
S11320508091010290910202E655FF4F91838083A3
S1132060809103029091040232969183808380913F
S11320700502909106023296918380833296F18212
S1132080E0828091090290910A02E65DF109918350
S1132090808380910B0290910C023296918380830D
S11320A080910D0290910E02329691838083329634
S11320B01183008300EF10E00E94A109015011096F
S11320C0D9F70E949C0980EA90E00E94C70A0E9406
S11320D0C70B8091F9019091FA01FE01E053FF4F83
S11320E0918380838091FB019091FC0132969183CE
S11320F080838091FD019091FE01329691838083CB
S113210032961182108280910102909102023296DD
S1132110918380838091030290910402329691838B
S11321208083809105029091060232969183808388
S113213081E090E0329691838083809109029091AE
S11321400A0232969183808380910B0290910C0253
S113215032969183808380910D0290910E02329683
S11321609183808382E090E032969183808386E33A
S113217091E00E94C70A0E94350D0E94560982E32D
S113218090E00E94C70A08E710E00E94A1090150EC
S11321901109D9F70E949C0980EA90E00E94C70ABD
S11321A00E947A090E94C70B8091F9019091FA016B
S11321B0FE01F395918380838091FB019091FC0152
S11321C03296918380838091FD019091FE01329635
S11321D091838083329611821082809101029091C2
S11321E002023296918380838091030290910402CB
S11321F032969183808380910502909106023296F3
S113220091838083EE24E394F12C3296F182E08270
S11322108091090290910A02329691838083809181
S11322200B0290910C0232969183808380910D026F
S113223090910E0232969183808302E010E03296F0
S11322401183008386E490E00E94C70A0E94C70BB2
S11322508091F9019091FA01FE01E85CFE4F9183AF
S113226080838091FB019091FC013296918380835D
S11322708091FD019091FE01329691838083329684
S1132280118210828091010290910202EE59FF4F57
S1132290918380838091030290910402329691830A
S11322A08083809105029091060232969183808307
S11322B03296F182E0828091090290910A02EE58EE
S11322C0F1099183808380910B0290910C023296E4
S11322D09183808380910D0290910E0232969183B6
S11322E0808332961183008300EF10E00E94A109DD
S11322F001501109D9F70E949C0980EA90E00E94DC
S1132300C70A0E94C70B8091F9019091FA01FE015E
S1132310E05EFE4F918380838091FB019091FC01EC
S11323203296918380838091FD019091FE013296D3
S11323309183808332961182108280910102909160
S11323400202329691838083809103029091040269
S11323503296918380838091050290910602329691
S11323609183808381E090E0329691838083809191
S1132370090290910A0232969183808380910B0224
S113238090910C0232969183808380910D029091FA
S11323900E0232969183808382E090E0329691839C
S11323A0808386E391E00E94C70A0E94350D0E9453
S11323B0560982E390E00E94C70A00EF10E00E94F1
S11323C0A10901501109D9F70E949C0980EA90E003
S11323D00E94C70A0E947A090E94C70B8091F901E2
S11323E09091FA01FE01E05AFE4F9183808380911F
S11323F0FB019091FC013296918380838091FD01D1
S11324009091FE01329691838083329611821082DC
S1132410809101029091020232969183808380918F
S11324200302909104023296918380838091050285
S113243090910602329691838083EE24E394F12CEA
S11324403296F182E0828091090290910A023296DA
S11324509183808380910B0290910C023296918338
S1132460808380910D0290910E0232969183808335
S113247002E010E032961183008386E490E00E942B
S1132480C70A0E94C70B8091F9019091FA01FE01DD
S1132490E85AFE4F918380838091FB019091FC0167
S11324A03296918380838091FD019091FE01329652
S11324B091838083329611821082809101029091DF
S11324C00202E65BFF4F9183808380910302909127
S11324D004023296918380838091050290910602D2
S11324E03296918380833296F182E0828091090250
S11324F090910A02F6979183808380910B029091C8
S11325000C0232969183808380910D0290910E0289
S113251032969183808332961183008300EF10E01A
S11325200E94A10901501109D9F70E949C0980EA6F
S113253090E00E94C70A0E94C70B8091F901909114
S1132540FA01FE01E05CFE4F918380838091FB01E0
S11325509091FC013296918380838091FD0190914A
S1132560FE0132969183808332961182108280918B
S1132570010290910202329691838083809103023A
S11325809091040232969183808380910502909108
S1132590060232969183808381E090E032969183A3
S11325A080838091090290910A02329691838083FC
S11325B080910B0290910C023296918380838091DA
S11325C00D0290910E0232969183808382E090E016
S11325D032969183808386E391E00E94C70A0E9429
S11325E0350D0E94560982E390E00E94C70A00EF6D
S11325F010E00E94A10901501109D9F70E949C0919
S113260080EA90E00E94C70A0E947A090E94C70BE0
S11326108091F9019091FA01FE01E056FF4F9183F8
S113262080838091FB019091FC0132969183808399
S11326308091FD019091FE013296918380833296C0
S1132640118210828091010290910202329691834C
S11326508083809103029091040232969183808357
S11326608091050290910602329691838083EE2434
S1132670E394F12C3296F182E082809109029091E8
S11326800A0232969183808380910B0290910C020E
S113269032969183808380910D0290910E0232963E
S11326A09183808302E010E032961183008386E4F4
S11326B090E00E94C70A0E94C70B8091F901909193
S11326C0FA01FE01E856FF4F918380838091FB015C
S11326D09091FC013296918380838091FD019091C9
S11326E0FE0132969183808332961182108280910A
S11326F0010290910202EE50FF4F918380838091FA
S113270003029091040232969183808380910502A2
S1132710909106023296918380833296F182E08210
S11327208091090290910A02EE5DF1099183808300
S113273080910B0290910C02329691838083809158
S11327400D0290910E02329691838083329611830A
S1132750008300EF10E00E94A10901501109D9F78C
S11327600E949C0980EA90E00E94C70A0E94C70B5D
S11327708091F9019091FA01FE01E058FF4F918395
S113278080838091FB019091FC0132969183808338
S11327908091FD019091FE0132969183808332965F
S11327A011821082809101029091020232969183EB
S11327B080838091030290910402329691838083F6
S11327C08091050290910602329691838083EE24D3
S11327D0E394F12C3296F182E08280910902909187
S11327E00A0232969183808380910B0290910C02AD
S11327F032969183808380910D0290910E023296DD
S11328009183808302E010E032961183008386E393
S113281091E00E94C70A0E94350D0E94560980EA81
S113282090E00E94C70A0E947A090E94C70B809117
S1132830F9019091FA01998388838091FB01909129
S1132840FC019B838A838091FD019091FE019D830D
S11328508C831F821E8280910102909102029987CB
S1132860888780910302909104029B878A878091D4
S11328700502909106029D878C87FF86EE868091E3
S1132880090290910A02998B888B80910B02909196
S11328900C029B8B8A8B80910D0290910E029D8B72
S11328A08C8B1F8B0E8B86E490E00E94C70A0E94DB
S11328B0C70B8091F9019091FA0199AF88AF80918B
S11328C0FB019091FC019BAF8AAF8091FD01909137
S11328D0FE019DAF8CAF1FAE1EAE809101029091A0
S11328E00202FE01E058FE4F91838083809103022F
S11328F09091040232969183808380910502909195
S113290006023296918380833296F182E08280912E
S1132910090290910A02998F888F80910B029091FD
S11329200C029B8F8A8F80910D0290910E029D8FD5
S11329308C8F1F8F0E8F00EF10E00E94A1090150B1
S11329401109D9F70E949C0980EA90E00E94C70A05
S11329500E94C70B8091F9019091FA0199A388A371
S11329608091FB019091FC019BA38AA38091FD01BE
S11329709091FE019DA38CA31FA21EA2809101022F
S11329809091020299A788A7809103029091040272
S11329909BA78AA780910502909106029DA78CA708
S11329A081E090E09FA78EA78091090290910A028E
S11329B099AB88AB80910B0290910C029BAB8AABD4
S11329C080910D0290910E029DAB8CAB82E090E061
S11329D09FAB8EAB86E391E00E94C70A83E191E04E
S11329E0DF91CF911F910F91FF90EF900C94C70A44
S11329F00F931F93CF93DF9320E034E03093C00113
S1132A002093BF013093C2012093C1013093C401CC
S1132A102093C3013093C6012093C5013093C801AC
S1132A202093C7013093CA012093C9013093CC018C
S1132A302093CB013093CE012093CD013093D0016C
S1132A402093CF011092D2011092D1011092D4019F
S1132A501092D3011092D6011092D5011092D80190
S1132A601092D7011092DA011092D9011092DC0170
S1132A701092DB011092DE011092DD011092E00150
S1132A801092DF011092E2011092E101EC018C013D
S1132A9000551E4FFC0180819181A681B781AA0F48
S1132AA0BB1FAF52BE4F2D913C9111972817390788
S1132AB010F48D939C9382819381A681B781AA0F90
S1132AC0BB1FA952BE4F2D913C911197281739076E
S1132AD010F48D939C9384819581A681B781AA0F6C
S1132AE0BB1FA352BE4F2D913C9111972817390754
S1132AF010F48D939C9380819181A681B781AA0F54
S1132B00BB1FA154BE4F2D913C911197821793077F
S1132B1010F48D939C9382819381A681B781AA0F2F
S1132B20BB1FAB53BE4F2D913C9111978217930756
S1132B3010F48D939C9384819581A681B781AA0F0B
S1132B40BB1FA553BE4F2D913C911197821793073C
S1132B5010F48D939C933896E017F10709F09BCFFE
S1132B602E813F813327F901EE0FFF1FEF52FE4FF5
S1132B706081718188819981AB01481B590B942F25
S1132B80F901EE0FFF1FE154FE4F40815181641B98
S1132B90750B80E00E94F42479836883F901EE0FB9
S1132BA0FF1FE952FE4F608171818A819B81AB01D5
S1132BB0481B590B942FF901EE0FFF1FEB53FE4FE7
S1132BC040815181641B750B80E00E94F4247B8357
S1132BD06A83F901EE0FFF1FE352FE4F608171819A
S1132BE08C819D81AB01481B590B942F220F331FFD
S1132BF0F901E553FE4F20813181621B730B80E0A4
S1132C000E94F4247D836C832896C017D10709F0B1
S1132C10A7CFDF91CF911F910F910895CF92DF92AB
S1132C20EF92FF92CF93DF93EC01C12CD12C76016C
S1132C30C701B6010E94A3088DE30E946E08688153
S1132C40798180E090E00E94A3088CE20E946E08E3
S1132C506A817B8180E090E00E94A3088CE20E945C
S1132C606E086C817D8180E090E00E94A3088AE078
S1132C700E946E082FE788E391E021508040904045
S1132C80E1F700C000002FEFC21AD20AE20AF20AEA
S1132C90289686E3C816D104E104F10449F6DF91CD
S1132CA0CF91FF90EF90DF90CF9008952F923F92B5
S1132CB04F925F926F927F928F929F92AF92BF9248
S1132CC0CF92DF92EF92FF920F931F93CF93DF93F4
S1132CD0CDB7DEB76E970FB6F894DEBF0FBECDBF8B
S1132CE0FC018B017C0180E8E81A8EEFF80A1F01D1
S1132CF090E5291A9EEF390A808191819A8F898FF4
S1132D00A281B381BC8FAB8F848195819E8F8D8F7F
S1132D10DE0111966D01A701DA018D919C91119745
S1132D20698D7A8D681B790B12968D919C911397FE
S1132D308B8C9C8C881A990A14968D919C9115976A
S1132D40AD8CBE8CA81AB90A9B01DB010E944F25E9
S1132D502B013C019401D4010E944F25460E571EBD
S1132D60681E791E9501D5010E944F25460E571EF7
S1132D70681E791ED6014D925D926D927D926D0111
S1132D80485F5F4F4215530539F6D8011C924981BB
S1132D905A816B817C819E012B5F3F4F81E0D90179
S1132DA08D909D90AD90BD909D0184169506A606CC
S1132DB0B70620F4D8018C93B501A4018F5F863047
S1132DC071F738960F5F1F4FEE15FF0509F094CF8A
S1132DD06E960FB6F894DEBF0FBECDBFDF91CF91D4
S1132DE01F910F91FF90EF90DF90CF90BF90AF9025
S1132DF09F908F907F906F905F904F903F902F9017
S1132E000895CF93DF9300D000D000D0CDB7DEB7C4
S1132E10DE01119626E0FD0111922A95E9F7AC0135
S1132E20405D5F4FFC012191CF01FD01E20FF11DD7
S1132E3020812F5F208384179507A1F7898188302B
S1132E4081F48A81883069F48B81883051F48C81D3
S1132E50883039F48D81883021F481E09E81983066
S1132E6009F080E026960FB6F894DEBF0FBECDBF02
S1132E70DF91CF910895DC01462F50E04C3051058D
S1132E8008F088C5FA01E05BFF4F0C9449258C914A
S1132E9016969C9116979C9314969C91149716964B
S1132EA09C93169712969C91129714969C93149740
S1132EB012968C93129711968C91119717969C9158
S1132EC0179711969C93119715969C9115971796A1
S1132ED09C93179713969C91139715969C9315970B
S1132EE013968C93139718968C91189750969C91DF
S1132EF0509718969C93189758969C91589750966B
S1132F009C93509790969C91909758969C93589721
S1132F1090968C93909719968C91199751969C91B1
S1132F20519719969C93199759969C915997519634
S1132F309C93519791969C91919759969C935997EC
S1132F4091968C9391971A968C911A9752969C917C
S1132F5052971A969C931A975A969C915A975296FE
S1132F609C93529792969C9192975A969C935A97B7
S1132F7057C18C9112969C9112979C9314969C9194
S1132F80149712969C93129716969C9116971496E2
S1132F909C93149716968C93169711968C9111976F
S1132FA013969C91139711969C93119715969C9147
S1132FB0159713969C93139717969C9117971596AC
S1132FC09C93159717968C93179718968C9118972E
S1132FD090969C91909718969C93189758969C91CC
S1132FE0589790969C93909750969C91509758968A
S1132FF09C93589750968C93509719968C91199747
S113300091969C91919719969C93199759969C9196
S1133010599791969C93919751969C915197599653
S11330209C93599751968C9351971A968C911A9711
S113303092969C9192971A969C931A975A969C9161
S11330405A9792969C93929752969C9152975A961D
S11330509C935A97C5C218968C9118971E969C916A
S11330601E9718969C9318971C969C911C971E96D5
S11330709C931E971A969C911A971C969C931C9746
S11330801A968C931A9719968C9119971F969C915E
S11330901F9719969C9319971D969C911D971F969F
S11330A09C931F971B969C911B971D969C931D9711
S11330B01B968C931B978C9194969C9194979C93BC
S11330C098969C91989794969C93949750969C91DB
S11330D0509798969C93989750968C9350971796E0
S11330E08C91179793969C91939717969C93179707
S11330F09F969C919F9793969C93939757969C9198
S113310057979F969C939F9757968C93579716968D
S11331108C91169792969C91929716969C931697DB
S11331209E969C919E9792969C93929756969C916C
S113313056979E969C939E9756968C9308951896B0
S11331408C9118971A969C911A9718969C93189795
S11331501C969C911C971A969C931A971E969C9168
S11331601E971C969C931C971E968C931E971996DB
S11331708C9119971B969C911B9719969C93199760
S11331801D969C911D971B969C931B971F969C9133
S11331901F971D969C931D971F968C931F978C9138
S11331A050969C9150979C9398969C919897509682
S11331B09C93509794969C91949798969C939897E7
S11331C094968C93949717968C91179757969C91F5
S11331D0579717969C9317979F969C919F975796EE
S11331E09C93579793969C9193979F969C939F97A4
S11331F093968C93939716968C91169756969C91CA
S1133200569716969C9316979E969C919E975696C3
S11332109C93569792969C9192979E969C939E9778
S113322092968C93089550968C91509756969C91B3
S1133230569750969C93509754969C9154975696B3
S11332409C93569752969C91529754969C9354975C
S113325052968C93529751968C91519757969C9174
S1133260579751969C93519755969C91559757967D
S11332709C93579753969C91539755969C93559727
S113328053968C93539716968C9116971C969C91F3
S11332901C9716969C9316979A969C919A971C96AF
S11332A09C931C9758969C9158979A969C939A979E
S11332B058968C93589715968C9115971B969C91BC
S11332C01B9715969C93159799969C9199971B9685
S11332D09C931B975F969C915F9799969C93999763
S11332E05F968C935F9714968C9114971A969C9181
S11332F01A9714969C93149798969C9198971A965B
S11333009C931A975E969C915E9798969C93989737
S11333105E968C93089550968C91509752969C91FA
S1133320529750969C93509754969C9154975296CA
S11333309C93529756969C91569754969C93549767
S113334056968C93569751968C91519753969C917F
S1133350539751969C93519755969C915597539694
S11333609C93539757969C91579755969C93559732
S113337057968C93579716968C91169758969C91BE
S1133380589716969C9316979A969C919A97589646
S11333909C9358971C969C911C979A969C939A97E9
S11333A01C968C931C9715968C9115975F969C91FF
S11333B05F9715969C93159799969C9199975F960C
S11333C09C935F971B969C911B9799969C939997B6
S11333D01B968C931B9714968C9114975E969C91D4
S11333E05E9714969C93149798969C9198975E96E2
S11333F09C935E971A969C911A9798969C9398978B
S11334001A968C93089558968C9158975E969C9131
S11334105E9758969C9358975C969C915C975E96A1
S11334209C935E975A969C915A975C969C935C9752
S11334305A968C935A9759968C9159975F969C916A
S11334405F9759969C9359975D969C915D975F966B
S11334509C935F975B969C915B975D969C935D971D
S11334605B968C935B9714968C91149754969C91CD
S1133470549714969C9314979C969C919C9754965D
S11334809C93549790969C9190979C969C939C9710
S113349090968C93909713968C91139753969C9136
S11334A0539713969C9313979B969C919B97539633
S11334B09C93539797969C9197979B969C939B97D5
S11334C097968C93979712968C91129752969C91FB
S11334D0529712969C9312979A969C919A97529609
S11334E09C93529796969C9196979A969C939A97AA
S11334F096968C93089558968C9158975A969C91C9
S11335005A9758969C9358975C969C915C975A96B8
S11335109C935A975E969C915E975C969C935C975D
S11335205E968C935E9759968C9159975B969C9175
S11335305B9759969C9359975D969C915D975B9682
S11335409C935B975F969C915F975D969C935D9728
S11335505F968C935F9714968C91149790969C9198
S1133560909714969C9314979C969C919C979096F4
S11335709C93909754969C9154979C969C939C975B
S113358054968C93549713968C91139797969C9179
S1133590979713969C9313979B969C919B979796BA
S11335A09C93979753969C9153979B969C939B9728
S11335B053968C93539712968C91129796969C914E
S11335C0969712969C9312979A969C919A97969690
S11335D09C93969752969C9152979A969C939A97FD
S11335E052968C93089590968C91909796969C9170
S11335F0969790969C93909794969C919497969670
S11336009C93969792969C91929794969C93949758
S113361092968C93929791968C91919797969C9170
S1133620979791969C93919795969C919597979639
S11336309C93979793969C91939795969C93959723
S113364093968C93939712968C9112975C969C9177
S11336505C9712969C9312979E969C919E975C966B
S11336609C935C9718969C9118979E969C939E9712
S113367018968C93189711968C9111975B969C9140
S11336805B9711969C9311979D969C919D975B9641
S11336909C935B971F969C911F979D969C939D97D7
S11336A01F968C931F978C915A969C915A979C9332
S11336B09C969C919C975A969C935A971E969C9183
S11336C01E979C969C939C971E968C930895909617
S11336D08C91909792969C91929790969C939097A8
S11336E094969C91949792969C93929796969C917B
S11336F0969794969C93949796968C939697919676
S11337008C91919793969C91939791969C93919772
S113371095969C91959793969C93939797969C9145
S1133720979795969C93959797968C9397971296BF
S11337308C91129718969C91189712969C931297B5
S11337409E969C919E9718969C9318975C969C9134
S11337505C979E969C939E975C968C935C9711962F
S11337608C9111971F969C911F9711969C9311977A
S11337709D969C919D971F969C931F975B969C91F9
S11337805B979D969C939D975B968C935B978C918E
S11337901E969C911E979C939C969C919C971E961A
S11337A09C931E975A969C915A979C969C939C978F
S11337B05A968C93089598968C9198979E969C917E
S11337C09E9798969C9398979C969C919C979E966E
S11337D09C939E979A969C919A979C969C939C975F
S11337E09A968C939A9799968C9199979F969C9177
S11337F09F9799969C9399979D969C919D979F9638
S11338009C939F979B969C919B979D969C939D9729
S11338109B968C939B9756968C9156971E969C914B
S11338201E9756969C93569796969C9196971E969D
S11338309C931E975E969C915E9796969C93969702
S11338405E968C935E9755968C9155971D969C9198
S11338501D9755969C93559795969C9195971D9673
S11338609C931D975D969C915D9795969C939597D7
S11338705D968C935D9754968C9154971C969C916D
S11338801C9754969C93549794969C9194971C9649
S11338909C931C975C969C915C9794969C939497AC
S11338A05C968C93089598968C9198979A969C918F
S11338B09A9798969C9398979C969C919C979A9685
S11338C09C939A979E969C919E979C969C939C976A
S11338D09E968C939E9799968C9199979B969C9182
S11338E09B9799969C9399979D969C919D979B964F
S11338F09C939B979F969C919F979D969C939D9735
S11339009F968C939F9756968C9156975E969C9112
S11339105E9756969C93569796969C9196975E962C
S11339209C935E971E969C911E9796969C93969751
S11339301E968C931E9755968C9155975D969C91E7
S11339405D9755969C93559795969C9195975D9602
S11339509C935D971D969C911D9795969C93959726
S11339601D968C931D9754968C9154975C969C91BC
S11339705C9754969C93549794969C9194975C96D8
S11339809C935C971C969C911C9794969C939497FB
S11339901C968C9308957F928F929F92AF92BF92C0
S11339A0CF92DF92EF92FF920F931F93CF93DF9307
S11339B0CDB7DEB7C255D1090FB6F894DEBF0FBE3E
S11339C0CDBFFC018B0190E3DE01119601900D92B5
S11339D09A95E1F720E0BAEFEB2EF12C84E0B82EB3
S11339E088E0289FB0011124625F714F48E050E0E5
S11339F0CE01C19663962FAF63970E946D259AA955
S1133A0089A963962FAD6397E1E0F0E0EC0FFD1F09
S1133A10E80FF11D87FDFA958081911118C081117D
S1133A2044C08BA9E1E0F0E0EC0FFD1FE80FF11DAD
S1133A3087FDFA95408150E08CA9082E000C990B63
S1133A404817590791F56801AB2CA01A21C08111C0
S1133A502CC08BA9E1E0F0E0EC0FFD1FE80FF11D95
S1133A6087FDFA95408150E08CA9082E000C990B33
S1133A704817590741F719C0F60161936F01F1E046
S1133A80EF1AF10809F4CFC1CE0101960E943B1749
S1133A9086018A2D8C0DE1E3F0E0EC0FFD1FE80FA9
S1133AA0F11D608167FFE8CF2FEF2F5F283308F403
S1133AB097CF20E0FAE0BF2EA6E0AA2EB29EB00176
S1133AC01124625D734F4AE050E0CE01C1966396C3
S1133AD02FAF63970E946D259AA989A963962FAD8C
S1133AE06397E1E0F0E0EC0FFD1FE80FF11D87FDA7
S1133AF0FA95808191112CC081116AC08BA9E1E0F3
S1133B00F0E0EC0FFD1FE80FF11D87FDFA954081F1
S1133B1050E08CA9082E000C990B4817590709F09E
S1133B2057C08DA9E1E0F0E0EC0FFD1FE80FF11D97
S1133B3087FDFA95408150E08EA9082E000C990B60
S1133B404817590709F044C068019A2C901A33C0E9
S1133B5081113EC08BA9E1E0F0E0EC0FFD1FE80FFE
S1133B60F11D87FDFA95408150E08CA9082E000CC8
S1133B70990B4817590761F18DA9E1E0F0E0EC0FCA
S1133B80FD1FE80FF11D87FDFA95408150E08EA9D5
S1133B90082E000C990B48175907B1F619C0F60105
S1133BA061936F01F1E0EF1AF10809F43CC1CE0111
S1133BB001960E943B178601892D8C0DE1E3F0E00C
S1133BC0EC0FFD1FE80FF11D608167FFE8CF2FEFB9
S1133BD02F5F203308F472CF20E07DE0B72EE5E0BC
S1133BE0AE2EB29EB0011124665A754F4DE050E0DE
S1133BF0CE01C19663962FAF63970E946D2539A9B4
S1133C009AA98BA963962FAD6397E1E0F0E0EC0FDE
S1133C10FD1FE90FF11D97FDFA95408150E0082E34
S1133C20000C990B311117C04817590709F046C009
S1133C308CA9E1E0F0E0EC0FFD1FE80FF11D87FD1A
S1133C40FA95408150E08DA9082E000C990B481775
S1133C505907A1F503C04817590721F068019A2CA8
S1133C60901A1FC08CA9E1E0F0E0EC0FFD1FE80FF3
S1133C70F11D87FDFA95408150E08DA9082E000CB6
S1133C80990B4817590751F719C0F60161936F0151
S1133C90F1E0EF1AF10809F4C6C0CE0101960E94C2
S1133CA03B178601892D8C0DE1E3F0E0EC0FFD1F3D
S1133CB0E80FF11D608167FFE8CF2FEF2F5F2432FB
S1133CC008F48FCF58E0952E6AE0862E2EE8A22EB7
S1133CD023E0B22E4EE150E0B501CE01C1960E9420
S1133CE06D2589A9E1E0F0E0EC0FFD1FE80FF11D5F
S1133CF087FDFA958081853009F075C08AA9E1E0D5
S1133D00F0E0EC0FFD1FE80FF11D87FDFA958081AF
S1133D10853009F068C08BA9E1E0F0E0EC0FFD1FED
S1133D20E80FF11D87FDFA958081853009F05BC0AD
S1133D308CA9E1E0F0E0EC0FFD1FE80FF11D87FD19
S1133D40FA958081853009F04EC08DA9E1E0F0E05C
S1133D50EC0FFD1FE80FF11D87FDFA95808185307A
S1133D6009F041C08EA9E1E0F0E0EC0FFD1FE80F7F
S1133D70F11D87FDFA9580818530A9F58FA9E1E0D1
S1133D80F0E0EC0FFD1FE80FF11D87FDFA9580812F
S1133D90853049F588ADE1E0F0E0EC0FFD1FE80F58
S1133DA0F11D87FDFA9580818530E9F46801792C4D
S1133DB0701A8601872D8C0DE1E3F0E0EC0FFD1FF6
S1133DC0E80FF11D6081161664F4F60161936F012A
S1133DD0F1E0EF1AF10839F1CE0101960E943B1788
S1133DE0E8CF80E001C081E09CE3A9169AE0B9061F
S1133DF051F0EEE1AE0EB11C81116CCF3CE0932E7C
S1133E004AE0842ECDC0F8018823C1F30F5F1F4F11
S1133E108082F1E0EF1AF10831F06AE0CE010196F8
S1133E200E943B1753CF80E0E6C0E1E2AE0EB11C26
S1133E30882309F4C9C041E250E0B501CE01C1961E
S1133E400E946D2589A9E1E0F0E0EC0FFD1FE80F69
S1133E50F11D87FDFA9580819AA9E1E0F0E0EC0F6D
S1133E60FD1FE90FF11D97FDFA9590818913AAC0F2
S1133E709BA9E1E0F0E0EC0FFD1FE90FF11D97FDB8
S1133E80FA95908189139EC08CA9E1E0F0E0EC0FD3
S1133E90FD1FE80FF11D87FDFA9580819DA9E1E0E2
S1133EA0F0E0EC0FFD1FE90FF11D97FDFA959081ED
S1133EB0891388C09EA9E1E0F0E0EC0FFD1FE90F33
S1133EC0F11D97FDFA95908189137CC08FA9E1E0DB
S1133ED0F0E0EC0FFD1FE80FF11D87FDFA958081DE
S1133EE098ADE1E0F0E0EC0FFD1FE90FF11D97FD47
S1133EF0FA959081891366C099ADE1E0F0E0EC0F8A
S1133F00FD1FE90FF11D97FDFA95908189135AC0A1
S1133F108AADE1E0F0E0EC0FFD1FE80FF11D87FD35
S1133F20FA9580819BADE1E0F0E0EC0FFD1FE90F15
S1133F30F11D97FDFA959081891344C09CADE1E091
S1133F40F0E0EC0FFD1FE90FF11D97FDFA9590814C
S1133F50891338C06801792C701A8601872D8C0D5D
S1133F60E1E3F0E0EC0FFD1FE80FF11D608167FF56
S1133F701CC080E09DE6A91693E0B90609F055CF70
S1133F80F801882309F10F5F1F4F8082F1E0EF1AD7
S1133F90F10809F448CF6AE0CE0101960E943B176C
S1133FA098EBA92E90E0B92E46CFF60161936F01EC
S1133FB0F1E0EF1AF10809F436CFCE0101960E9420
S1133FC03B17CBCF81E0D6CF8AE0D82E8E858130C7
S1133FD071F0F801D1928F01F1E0EF1AF10809F4C0
S1133FE022CF6AE0CE0101960E943B17EFCF8FEFFC
S1133FF0F801808381E0CE5ADF4F0FB6F894DEBF1C
S11340000FBECDBFDF91CF911F910F91FF90EF9025
S1134010DF90CF90BF90AF909F908F907F90089546
S11340204F925F927F928F929F92AF92BF92CF9264
S1134030DF92EF92FF920F931F93CF93DF93CDB74D
S1134040DEB7C85FD1400FB6F894DEBF0FBECDBF58
S11340508C018AE091E00E9497089E012F5F3F4FF8
S1134060790188EF91E0D901FC011D923197E9F7BC
S1134070B1E0B9838FEF8B838C83B88B898B8A8B68
S1134080BD8FBE8F8F8F8AA3A3E0ABA752E05CA73E
S11340908DA78EA759AFAAAF8BAF8CAF2896AFAFC1
S11340A028972996AFAF29972A968FAF2A972B96F0
S11340B05FAF2B972C965FAF2C972D968FAF2D97D4
S11340C0F5E06696FFAF669744E067964FAF679753
S11340D068968FAF689769968FAF6997A4964FAF2C
S11340E0A497A596FFAFA597A6968FAFA697A79678
S11340F08FAFA797E296FFAFE297E396FFAFE39700
S1134100E4968FAFE497E5964FAFE597E6964FAF09
S1134110E697E7968FAFE797C158DF4F5883CF579D
S1134120D04036E0C058DF4F3883C058D040CF5716
S1134130DF4F8883C158D040CE57DF4F3883C258F1
S1134140D040CD57DF4F5883C358D040CC57DF4FB2
S11341508883C458D040C357DF4FA883CD58D0407C
S1134160C257DF4F3883CE58D040C157DF4F8883C2
S1134170CF58D040C057DF4F3883C059D040CF56B6
S1134180DF4FA883C159D040CE56DF4F8883C25930
S1134190D040E7E0C556DF4FE883CB59D040C45642
S11341A0DF4F3883CC59D040C356DF4F8883CD5975
S11341B0D040C256DF4F8883CE59D040C755DF4F19
S11341C05883C95AD040C655DF4FE883CA5AD040F5
S11341D0C555DF4F8883CB5AD040C455DF4FE883A1
S11341E0CC5AD040C355DF4F5883CD5AD040C25526
S11341F0DF4F8883CE5AD040C954DF4FA883C75BB2
S1134200D040C854DF4FE883C85BD040C754DF4F69
S11342108883C95BD040C654DF4FE883CA5BD04073
S1134220C554DF4FA883CB5BD040C454DF4F888391
S1134230CC5BD040CB53DF4F3883C55CD040CA53EE
S1134240DF4FE883C65CD040C953DF4F8883C75C27
S1134250D040C853DF4F8883C85CD040CD52DF4F75
S1134260E883C35DD040CC52DF4FE883C45DD040C7
S1134270CB52DF4F8883C55DD040CA52DF4F3883AD
S1134280C65DD040C952DF4F3883C75DD040C852A5
S1134290DF4F8883C85DD040CF51DF4F4883C15E74
S11342A0D04028E0CE51DF4F2883C25ED040CD51AC
S11342B0DF4F8883C35ED040CC51DF4F2883C45E78
S11342C0D040CB51DF4F4883C55ED040CA51DF4F49
S11342D08883C65ED040C151DF4FF883CF5ED040A3
S11342E0C051DF4F2883C05FD040CF50DF4F888359
S11342F0C15FD040CE50DF4F2883C25FD040CD5045
S1134300DF4FF883C35FD040CC50DF4F8883C45F56
S1134310D04079E0C350DF4F7883CD5FD040C250A6
S1134320DF4F2883CE5FD040C150DF4F8883CF5FFB
S1134330D040C050DF4F8883C050D140C55FDE4FAE
S11343404883CB50D140C45FDE4F7883CC50D140FA
S1134350C35FDE4F8883CD50D140C25FDE4F788388
S1134360CE50D140C15FDE4F4883CF50D140C05FB3
S1134370DE4F8883C051D140C75EDE4FF883C951F8
S1134380D140C65EDE4F7883CA51D140C55EDE4F50
S11343908883CB51D140C45EDE4F7883CC51D14069
S11343A0C35EDE4FF883CD51D140C25EDE4F8883B9
S11343B0CE51D140C95DDE4F2883C752D140C85D7C
S11343C0DE4F7883C852D140C75DDE4F8883C9521F
S11343D0D140C65DDE4F8883CA52D140CB5CDE4FEC
S11343E07883C553D140CA5CDE4F7883C653D1402D
S11343F0C95CDE4F8883C753D140C85CDE4F288335
S1134400C853D140C75CDE4F2883C953D140C65C32
S1134410DE4F8883CA53D1409AE0CC5BDE4F988349
S1134420C454D140CB5BDE4F8883C554D140CA5BB2
S1134430DE4F9883C654D140C85BDE4F8883C8548E
S1134440D140CF5ADE4FB883C155D140CE5ADE4F4A
S11344509883C255D140CD5ADE4F8883C355D1408D
S1134460CC5ADE4F9883C455D140CB5ADE4FB88323
S1134470C555D140CA5ADE4F8883C655D1406BE03A
S1134480C15ADE4F6883CF55D140C05ADE4F98835E
S1134490C056D140CF59DE4F8883C156D140CE5942
S11344A0DE4F8883C256D140C259DE4F6883CE5650
S11344B0D140C159DE4F8883CF56D140C059DE4F19
S11344C06883C057D140CE58DE4F8883C257D1404D
S11344D0C558DE4FB883CB57D140C458DE4F6883EC
S11344E0CC57D140C358DE4F8883CD57D140C258F2
S11344F0DE4F6883CE57D140C158DE4FB883CF57C3
S1134500D140C058DE4F8883C058D140C757DE4FD2
S11345109883C958D140C657DE4F6883CA58D140E2
S1134520C557DE4F8883CB58D140C457DE4F8883AC
S1134530CC58D140C956DE4F6883C759D140C856BC
S1134540DE4F6883C859D140C756DE4F8883C959A6
S1134550D140C656DE4F9883CA59D140C556DE4F66
S11345609883CB59D140C456DE4F8883CC59D1406F
S1134570C855DE4F8883C85AD140C755DE4FB8832B
S1134580C95AD140C655DE4F8883CA5AD140CD544A
S1134590DE4F5883C35BD140CC54DE4F5883C45B99
S11345A0D140CB54DE4F5883C55BD140CA54DE4F53
S11345B08883C65BD140C954DE4FA883C75BD14012
S11345C0C854DE4F8883C85BD140CF53DE4F488345
S11345D0C15CD140CE53DE4F4883C25CD140CD5341
S11345E0DE4F4883C35CD140CC53DE4F8883C45C28
S11345F0D140CB53DE4FF883C55CD140CA53DE4F64
S11346008883C65CD140C153DE4F3883CF5CD14030
S1134610C053DE4F3883C05DD140CF52DE4F388364
S1134620C15DD140CE52DE4F8883C25DD140CD52B0
S1134630DE4FE883C35DD140CC52DE4F8883C45D36
S1134640D140C352DE4F2883CD5DD140C252DE4FEC
S11346502883CE5DD140C152DE4F2883CF5DD14047
S1134660C052DE4F8883C05ED140CF51DE4F788385
S1134670C15ED140CE51DE4F8883C25ED140C55168
S1134680DE4F9883CB5ED140C451DE4F9883CC5E1D
S1134690D140C351DE4F9883CD5ED140C251DE4F2D
S11346A08883CE5ED140C151DE4F6883CF5ED14056
S11346B0C051DE4F8883C05FD140F8012F01401AFA
S11346C0510A819187FFFACF20E030E024153505A7
S11346D00CF07CC0A70160E070E080E090E0A0E016
S11346E0B0E06A01CA0EDB1EF601D080D7FC14C00C
S11346F0892B09F085C0CD01820F931F800F911F74
S1134700BB24B394C12CFC018081D81201C0B12C0C
S11347108B2D9C2D1196E5CF892B09F071C080E07B
S113472090E0FA01E80FF91FE081E7FD02C001966D
S1134730F8CF40E050E0680F791F6E0D7F1DFB013C
S1134740E40FF51FE181E7FD03C04F5F5F4FF7CF33
S1134750E0E0F0E0E417F50779F05F01A20EB31E84
S1134760A00EB11E6B01CE0EDF1ED6011196DC9099
S1134770D501DC923196EECF60E070E04201821AFE
S1134780930A841A950A5C01A20EB31E6A01C20E32
S1134790D31E681579057CF4FB01EA0DFB1DE00FBF
S11347A0F11F7080FB01EC0DFD1DE00FF11F708205
S11347B06F5F7F4FEECFD201A40FB51F2D01481AB2
S11347C0590A215031092F5F3F4F80CF86E191E094
S11347D0C850DE4F0FB6F894DEBF0FBECDBFDF91D9
S11347E0CF911F910F91FF90EF90DF90CF90BF90EA
S11347F0AF909F908F907F905F904F900C9497080C
S11348006A3EB1E07B07F9F2425F5F4F625F7F4F20
S113481064CF8F929F92AF92BF92CF92DF92EF922A
S1134820FF920F931F93CF93DF93CDB7DEB7CA5D8B
S1134830D2400FB6F894DEBF0FBECDBF0E94D40D98
S1134840CE0101960E94920ECE0101960E94F814A8
S1134850BE0165557D4FCE0101960E945616CE01CC
S113486001960E940E16CE0185559D4F0E94011798
S1134870882309F45BC08E010F541E4FB801CE018A
S113488085559D4F0E94CB1C882309F451C0C80153
S11348900E9410205801F8014F01801A910A819159
S11348A087FFFACF8DE191E00E949708B401092CAB
S11348B0000C880B990B0E94A30883E391E00E94EB
S11348C097088FE19EE40197F1F700C00000C12C26
S11348D0D12C7601C814D9043CF58DE391E00E94F3
S11348E09708C701B6010E94A30880E491E00E94E2
S11348F097088501F50161915F01062E000C770B85
S1134900880B990B0E94A3088AE00E946E08F801A4
S113491080810E94E20DFFEFCF1ADF0AEF0AFF0A3F
S11349208111D8CF83E005C080E003C081E001C0DD
S113493082E0C652DD4F0FB6F894DEBF0FBECDBF86
S1134940DF91CF911F910F91FF90EF90DF90CF9067
S1134950BF90AF909F908F9008950E94380960E8AF
S113496075E280E090E00E9406080E94A40B85E4B2
S113497091E00E9497080E947A090E94350D0E94D6
S11349800924823001F138F4882361F08130B9F7C9
S11349908FE591E01DC08330C9F0843081F78AEA45
S11349A091E016C084E591E00E9497080E945609A0
S11349B0C0E8D7E00E94A1092197E1F70E949C0971
S11349C00E947A0907C085E791E002C08EE891E071
S11349D00E9497082FEF83E294EF2150804090408B
S11349E0E1F700C00000CBCFAA1BBB1B51E107C0FD
S11349F0AA1FBB1FA617B70710F0A61BB70B881F6B
S1134A00991F5A95A9F780959095BC01CD010895F9
S1134A10A1E21A2EAA1BBB1BFD010DC0AA1FBB1FBE
S1134A20EE1FFF1FA217B307E407F50720F0A21B30
S1134A30B30BE40BF50B661F771F881F991F1A949D
S1134A4069F760957095809590959B01AC01BD01C7
S1134A50CF010895052E97FB1EF400940E94412572
S1134A6057FD07D00E94082507FC03D04EF40C9490
S1134A70412550954095309521953F4F4F4F5F4FBD
S1134A80089590958095709561957F4F8F4F9F4FB6
S1134A900895EE0FFF1F0590F491E02D09940E94F4
S1134AA05725332312F48A1B9B0B0C946825A29F71
S1134AB0B001B39FC001A39F700D811D1124911DEE
S1134AC0B29F700D811D1124911D08950E945725D8
S1134AD0B7FF0895821B930B0895FB01DC0102C00C
S1134AE005900D9241505040D8F70895F894FFCFA7
S1134AF03030303030303030303073696D706C6944
S1134B0066792E2E2E00646F6E65210A005265733D
S1134B106F6C76656E646F2061676F726120636F7E
S1134B206D2000206A6F67616461730A004A3A006D
S1134B30203D3E2000496E696369616C697A616455
S1134B406F210A005265736F6C7669646F210045AA
S1134B5072726F20646520636F6E73697374656E1F
S1134B606369610A004572726F20616F20736F6C14
S1134B707563696F6E6172206375626F0A004572B6
S1134B80726F20616F206578656375746172206D42
S1134B906F76696D656E746F0A004572726F20647A
S1114BA0652073696E63726F6E69610A0000AE
S9030000FC
